{
  "_format": "hh-sol-artifact-1",
  "contractName": "OortLendingLowCollateralV3",
  "sourceName": "contracts/OortLendingLowCollateralV3.sol",
  "abi": [
    {
      "anonymous": false,
      "inputs": [
        {
          "indexed": false,
          "internalType": "address",
          "name": "assetAddress",
          "type": "address"
        },
        {
          "components": [
            {
              "internalType": "uint256",
              "name": "tokenId",
              "type": "uint256"
            },
            {
              "internalType": "uint256",
              "name": "wTokenId",
              "type": "uint256"
            },
            {
              "internalType": "uint256",
              "name": "amount",
              "type": "uint256"
            },
            {
              "internalType": "enum OortTypes.AssetType",
              "name": "assetType",
              "type": "uint8"
            }
          ],
          "indexed": false,
          "internalType": "struct OortLendingLowCollateralV3.AssetItem",
          "name": "assetItem",
          "type": "tuple"
        },
        {
          "indexed": false,
          "internalType": "address",
          "name": "wTokenAddress",
          "type": "address"
        },
        {
          "indexed": false,
          "internalType": "address",
          "name": "lender",
          "type": "address"
        },
        {
          "indexed": false,
          "internalType": "address",
          "name": "borrower",
          "type": "address"
        },
        {
          "indexed": false,
          "internalType": "uint256",
          "name": "borrowedAtTimestamp",
          "type": "uint256"
        },
        {
          "indexed": false,
          "internalType": "uint256",
          "name": "setLendingTime",
          "type": "uint256"
        }
      ],
      "name": "BorrowingStarted",
      "type": "event"
    },
    {
      "anonymous": false,
      "inputs": [
        {
          "indexed": false,
          "internalType": "address",
          "name": "assetAddress",
          "type": "address"
        },
        {
          "components": [
            {
              "internalType": "uint256",
              "name": "tokenId",
              "type": "uint256"
            },
            {
              "internalType": "uint256",
              "name": "wTokenId",
              "type": "uint256"
            },
            {
              "internalType": "uint256",
              "name": "amount",
              "type": "uint256"
            },
            {
              "internalType": "enum OortTypes.AssetType",
              "name": "assetType",
              "type": "uint8"
            }
          ],
          "indexed": false,
          "internalType": "struct OortLendingLowCollateralV3.AssetItem",
          "name": "assetItem",
          "type": "tuple"
        },
        {
          "indexed": false,
          "internalType": "address",
          "name": "lender",
          "type": "address"
        },
        {
          "indexed": false,
          "internalType": "address",
          "name": "operator",
          "type": "address"
        },
        {
          "indexed": false,
          "internalType": "uint256",
          "name": "borrowedAtTimestamp",
          "type": "uint256"
        },
        {
          "indexed": false,
          "internalType": "uint256",
          "name": "setLendingTime",
          "type": "uint256"
        }
      ],
      "name": "BorrowingStopped",
      "type": "event"
    },
    {
      "anonymous": false,
      "inputs": [
        {
          "indexed": false,
          "internalType": "address",
          "name": "assetAddress",
          "type": "address"
        },
        {
          "indexed": false,
          "internalType": "uint256[]",
          "name": "tokenIds",
          "type": "uint256[]"
        },
        {
          "indexed": false,
          "internalType": "address",
          "name": "lender",
          "type": "address"
        },
        {
          "components": [
            {
              "internalType": "uint256[]",
              "name": "amounts",
              "type": "uint256[]"
            },
            {
              "internalType": "string[]",
              "name": "assetItemNames",
              "type": "string[]"
            },
            {
              "internalType": "uint256[]",
              "name": "earningGoals",
              "type": "uint256[]"
            },
            {
              "internalType": "uint256[]",
              "name": "durationHours",
              "type": "uint256[]"
            },
            {
              "internalType": "string",
              "name": "projectName",
              "type": "string"
            },
            {
              "internalType": "enum OortTypes.AssetType",
              "name": "assetType",
              "type": "uint8"
            },
            {
              "internalType": "uint256",
              "name": "setLendingTime",
              "type": "uint256"
            },
            {
              "internalType": "uint256",
              "name": "serviceFeeRate",
              "type": "uint256"
            }
          ],
          "indexed": false,
          "internalType": "struct OortLendingLowCollateralV3.LendSettings",
          "name": "lendSettings",
          "type": "tuple"
        }
      ],
      "name": "LendSettingsSet",
      "type": "event"
    },
    {
      "anonymous": false,
      "inputs": [
        {
          "indexed": false,
          "internalType": "address",
          "name": "assetAddress",
          "type": "address"
        },
        {
          "indexed": false,
          "internalType": "uint256[]",
          "name": "tokenIds",
          "type": "uint256[]"
        },
        {
          "indexed": false,
          "internalType": "address",
          "name": "lender",
          "type": "address"
        },
        {
          "components": [
            {
              "internalType": "uint256[]",
              "name": "amounts",
              "type": "uint256[]"
            },
            {
              "internalType": "string[]",
              "name": "assetItemNames",
              "type": "string[]"
            },
            {
              "internalType": "uint256[]",
              "name": "earningGoals",
              "type": "uint256[]"
            },
            {
              "internalType": "uint256[]",
              "name": "durationHours",
              "type": "uint256[]"
            },
            {
              "internalType": "string",
              "name": "projectName",
              "type": "string"
            },
            {
              "internalType": "enum OortTypes.AssetType",
              "name": "assetType",
              "type": "uint8"
            },
            {
              "internalType": "uint256",
              "name": "setLendingTime",
              "type": "uint256"
            },
            {
              "internalType": "uint256",
              "name": "serviceFeeRate",
              "type": "uint256"
            },
            {
              "internalType": "enum OortTypes.Currency[]",
              "name": "currencies",
              "type": "uint8[]"
            }
          ],
          "indexed": false,
          "internalType": "struct OortLendingLowCollateralV3.LendSettingsV2",
          "name": "lendSettings",
          "type": "tuple"
        }
      ],
      "name": "LendSettingsSetV2",
      "type": "event"
    },
    {
      "anonymous": false,
      "inputs": [
        {
          "indexed": false,
          "internalType": "address",
          "name": "assetAddress",
          "type": "address"
        },
        {
          "indexed": false,
          "internalType": "uint256[]",
          "name": "tokenIds",
          "type": "uint256[]"
        },
        {
          "indexed": false,
          "internalType": "address",
          "name": "lender",
          "type": "address"
        },
        {
          "indexed": false,
          "internalType": "uint256[]",
          "name": "setLendingTime",
          "type": "uint256[]"
        }
      ],
      "name": "LendingRemoved",
      "type": "event"
    },
    {
      "anonymous": false,
      "inputs": [
        {
          "indexed": true,
          "internalType": "address",
          "name": "previousOwner",
          "type": "address"
        },
        {
          "indexed": true,
          "internalType": "address",
          "name": "newOwner",
          "type": "address"
        }
      ],
      "name": "OwnershipTransferred",
      "type": "event"
    },
    {
      "inputs": [],
      "name": "acceptedPayTokenAddress",
      "outputs": [
        {
          "internalType": "address",
          "name": "",
          "type": "address"
        }
      ],
      "stateMutability": "view",
      "type": "function"
    },
    {
      "inputs": [
        {
          "internalType": "address",
          "name": "",
          "type": "address"
        },
        {
          "internalType": "address",
          "name": "",
          "type": "address"
        },
        {
          "internalType": "uint256",
          "name": "",
          "type": "uint256"
        }
      ],
      "name": "borrowerList",
      "outputs": [
        {
          "internalType": "int256",
          "name": "",
          "type": "int256"
        }
      ],
      "stateMutability": "view",
      "type": "function"
    },
    {
      "inputs": [],
      "name": "curServiceFeeRate",
      "outputs": [
        {
          "internalType": "uint256",
          "name": "",
          "type": "uint256"
        }
      ],
      "stateMutability": "view",
      "type": "function"
    },
    {
      "inputs": [
        {
          "internalType": "address",
          "name": "nftWrapper",
          "type": "address"
        },
        {
          "components": [
            {
              "internalType": "address",
              "name": "tokenAddress",
              "type": "address"
            },
            {
              "internalType": "enum OortTypes.Currency",
              "name": "currency",
              "type": "uint8"
            },
            {
              "internalType": "uint8",
              "name": "decimals",
              "type": "uint8"
            },
            {
              "internalType": "uint256",
              "name": "minEarningGoal",
              "type": "uint256"
            }
          ],
          "internalType": "struct OortLendingLowCollateralV3.PayTokenSettings[]",
          "name": "payTokenSettings",
          "type": "tuple[]"
        }
      ],
      "name": "initialize",
      "outputs": [],
      "stateMutability": "nonpayable",
      "type": "function"
    },
    {
      "inputs": [
        {
          "internalType": "address",
          "name": "tokenAddress",
          "type": "address"
        },
        {
          "internalType": "uint256",
          "name": "tokenId",
          "type": "uint256"
        },
        {
          "internalType": "address",
          "name": "borrower",
          "type": "address"
        }
      ],
      "name": "isLendBorrowedNFT",
      "outputs": [
        {
          "internalType": "bool",
          "name": "",
          "type": "bool"
        }
      ],
      "stateMutability": "view",
      "type": "function"
    },
    {
      "inputs": [],
      "name": "isStopped",
      "outputs": [
        {
          "internalType": "bool",
          "name": "",
          "type": "bool"
        }
      ],
      "stateMutability": "view",
      "type": "function"
    },
    {
      "inputs": [
        {
          "internalType": "address",
          "name": "",
          "type": "address"
        },
        {
          "internalType": "uint256",
          "name": "",
          "type": "uint256"
        },
        {
          "internalType": "address",
          "name": "",
          "type": "address"
        }
      ],
      "name": "lentNFTList",
      "outputs": [
        {
          "components": [
            {
              "internalType": "address",
              "name": "lender",
              "type": "address"
            },
            {
              "internalType": "address",
              "name": "borrower",
              "type": "address"
            },
            {
              "internalType": "uint256",
              "name": "earningGoal",
              "type": "uint256"
            },
            {
              "internalType": "uint256",
              "name": "durationHours",
              "type": "uint256"
            },
            {
              "internalType": "uint256",
              "name": "borrowedAtTimestamp",
              "type": "uint256"
            },
            {
              "internalType": "enum OortTypes.AssetType",
              "name": "assetType",
              "type": "uint8"
            },
            {
              "internalType": "uint256",
              "name": "amount",
              "type": "uint256"
            },
            {
              "internalType": "uint256",
              "name": "setLendingTime",
              "type": "uint256"
            },
            {
              "internalType": "uint256",
              "name": "serviceFeeRate",
              "type": "uint256"
            }
          ],
          "internalType": "struct OortTypes.LendingData",
          "name": "lendingData",
          "type": "tuple"
        },
        {
          "internalType": "uint256",
          "name": "wTokenId",
          "type": "uint256"
        },
        {
          "internalType": "address",
          "name": "wTokenAddress",
          "type": "address"
        },
        {
          "internalType": "address",
          "name": "wrapperAddress",
          "type": "address"
        }
      ],
      "stateMutability": "view",
      "type": "function"
    },
    {
      "inputs": [
        {
          "internalType": "address",
          "name": "",
          "type": "address"
        },
        {
          "internalType": "uint256",
          "name": "",
          "type": "uint256"
        },
        {
          "internalType": "address",
          "name": "",
          "type": "address"
        }
      ],
      "name": "nftPayTokenMap",
      "outputs": [
        {
          "internalType": "address",
          "name": "tokenAddress",
          "type": "address"
        },
        {
          "internalType": "enum OortTypes.Currency",
          "name": "currency",
          "type": "uint8"
        },
        {
          "internalType": "uint8",
          "name": "decimals",
          "type": "uint8"
        },
        {
          "internalType": "uint256",
          "name": "minEarningGoal",
          "type": "uint256"
        }
      ],
      "stateMutability": "view",
      "type": "function"
    },
    {
      "inputs": [],
      "name": "nftWrapperAddress",
      "outputs": [
        {
          "internalType": "address",
          "name": "",
          "type": "address"
        }
      ],
      "stateMutability": "view",
      "type": "function"
    },
    {
      "inputs": [
        {
          "internalType": "address",
          "name": "",
          "type": "address"
        },
        {
          "internalType": "address",
          "name": "",
          "type": "address"
        },
        {
          "internalType": "uint256[]",
          "name": "",
          "type": "uint256[]"
        },
        {
          "internalType": "uint256[]",
          "name": "",
          "type": "uint256[]"
        },
        {
          "internalType": "bytes",
          "name": "",
          "type": "bytes"
        }
      ],
      "name": "onERC1155BatchReceived",
      "outputs": [
        {
          "internalType": "bytes4",
          "name": "",
          "type": "bytes4"
        }
      ],
      "stateMutability": "pure",
      "type": "function"
    },
    {
      "inputs": [
        {
          "internalType": "address",
          "name": "operator",
          "type": "address"
        },
        {
          "internalType": "address",
          "name": "from",
          "type": "address"
        },
        {
          "internalType": "uint256",
          "name": "id",
          "type": "uint256"
        },
        {
          "internalType": "uint256",
          "name": "value",
          "type": "uint256"
        },
        {
          "internalType": "bytes",
          "name": "data",
          "type": "bytes"
        }
      ],
      "name": "onERC1155Received",
      "outputs": [
        {
          "internalType": "bytes4",
          "name": "",
          "type": "bytes4"
        }
      ],
      "stateMutability": "pure",
      "type": "function"
    },
    {
      "inputs": [
        {
          "internalType": "address",
          "name": "",
          "type": "address"
        },
        {
          "internalType": "address",
          "name": "",
          "type": "address"
        },
        {
          "internalType": "uint256",
          "name": "",
          "type": "uint256"
        },
        {
          "internalType": "bytes",
          "name": "",
          "type": "bytes"
        }
      ],
      "name": "onERC721Received",
      "outputs": [
        {
          "internalType": "bytes4",
          "name": "",
          "type": "bytes4"
        }
      ],
      "stateMutability": "nonpayable",
      "type": "function"
    },
    {
      "inputs": [],
      "name": "owner",
      "outputs": [
        {
          "internalType": "address",
          "name": "",
          "type": "address"
        }
      ],
      "stateMutability": "view",
      "type": "function"
    },
    {
      "inputs": [
        {
          "internalType": "enum OortTypes.Currency",
          "name": "",
          "type": "uint8"
        }
      ],
      "name": "payTokensMap",
      "outputs": [
        {
          "internalType": "address",
          "name": "tokenAddress",
          "type": "address"
        },
        {
          "internalType": "enum OortTypes.Currency",
          "name": "currency",
          "type": "uint8"
        },
        {
          "internalType": "uint8",
          "name": "decimals",
          "type": "uint8"
        },
        {
          "internalType": "uint256",
          "name": "minEarningGoal",
          "type": "uint256"
        }
      ],
      "stateMutability": "view",
      "type": "function"
    },
    {
      "inputs": [
        {
          "internalType": "address",
          "name": "assetAddress",
          "type": "address"
        },
        {
          "internalType": "uint256[]",
          "name": "tokenIds",
          "type": "uint256[]"
        }
      ],
      "name": "removeFromLending",
      "outputs": [],
      "stateMutability": "nonpayable",
      "type": "function"
    },
    {
      "inputs": [],
      "name": "renounceOwnership",
      "outputs": [],
      "stateMutability": "nonpayable",
      "type": "function"
    },
    {
      "inputs": [],
      "name": "resumeContract",
      "outputs": [],
      "stateMutability": "nonpayable",
      "type": "function"
    },
    {
      "inputs": [],
      "name": "serviceFeeRecipient",
      "outputs": [
        {
          "internalType": "address",
          "name": "",
          "type": "address"
        }
      ],
      "stateMutability": "view",
      "type": "function"
    },
    {
      "inputs": [
        {
          "components": [
            {
              "internalType": "address",
              "name": "contractAddress",
              "type": "address"
            },
            {
              "internalType": "enum OortTypes.AssetType",
              "name": "assetType",
              "type": "uint8"
            },
            {
              "internalType": "string",
              "name": "projectName",
              "type": "string"
            }
          ],
          "internalType": "struct OortTypes.InAssetLendSettings",
          "name": "asset",
          "type": "tuple"
        },
        {
          "internalType": "uint256[]",
          "name": "tokenIds",
          "type": "uint256[]"
        },
        {
          "internalType": "uint256[]",
          "name": "amounts",
          "type": "uint256[]"
        },
        {
          "components": [
            {
              "internalType": "string",
              "name": "name",
              "type": "string"
            },
            {
              "internalType": "uint256",
              "name": "earningGoal",
              "type": "uint256"
            },
            {
              "internalType": "uint256",
              "name": "durationHours",
              "type": "uint256"
            },
            {
              "internalType": "enum OortTypes.Currency",
              "name": "currency",
              "type": "uint8"
            }
          ],
          "internalType": "struct OortLendingLowCollateralV3.InAssetItemLendSettings[]",
          "name": "assetItems",
          "type": "tuple[]"
        }
      ],
      "name": "setLendSettings",
      "outputs": [],
      "stateMutability": "nonpayable",
      "type": "function"
    },
    {
      "inputs": [
        {
          "internalType": "address",
          "name": "wrapperAddress",
          "type": "address"
        }
      ],
      "name": "setNftWrapper",
      "outputs": [],
      "stateMutability": "nonpayable",
      "type": "function"
    },
    {
      "inputs": [
        {
          "components": [
            {
              "internalType": "address",
              "name": "tokenAddress",
              "type": "address"
            },
            {
              "internalType": "enum OortTypes.Currency",
              "name": "currency",
              "type": "uint8"
            },
            {
              "internalType": "uint8",
              "name": "decimals",
              "type": "uint8"
            },
            {
              "internalType": "uint256",
              "name": "minEarningGoal",
              "type": "uint256"
            }
          ],
          "internalType": "struct OortLendingLowCollateralV3.PayTokenSettings[]",
          "name": "arr",
          "type": "tuple[]"
        }
      ],
      "name": "setPayTokenSettings",
      "outputs": [],
      "stateMutability": "nonpayable",
      "type": "function"
    },
    {
      "inputs": [
        {
          "internalType": "uint256",
          "name": "dimi",
          "type": "uint256"
        }
      ],
      "name": "setServiceFeeRate",
      "outputs": [],
      "stateMutability": "nonpayable",
      "type": "function"
    },
    {
      "inputs": [
        {
          "internalType": "address",
          "name": "recipient",
          "type": "address"
        }
      ],
      "name": "setServiceFeeRecipient",
      "outputs": [],
      "stateMutability": "nonpayable",
      "type": "function"
    },
    {
      "inputs": [
        {
          "internalType": "address",
          "name": "lenderAddress",
          "type": "address"
        },
        {
          "internalType": "address",
          "name": "tokenAddress",
          "type": "address"
        },
        {
          "internalType": "uint256",
          "name": "tokenId",
          "type": "uint256"
        }
      ],
      "name": "startBorrowing",
      "outputs": [],
      "stateMutability": "nonpayable",
      "type": "function"
    },
    {
      "inputs": [
        {
          "internalType": "address",
          "name": "lenderAddress",
          "type": "address"
        },
        {
          "internalType": "address",
          "name": "tokenAddress",
          "type": "address"
        },
        {
          "internalType": "uint256",
          "name": "tokenId",
          "type": "uint256"
        }
      ],
      "name": "stopBorrowingByBorrower",
      "outputs": [],
      "stateMutability": "nonpayable",
      "type": "function"
    },
    {
      "inputs": [
        {
          "internalType": "address",
          "name": "lenderAddress",
          "type": "address"
        },
        {
          "internalType": "address",
          "name": "tokenAddress",
          "type": "address"
        },
        {
          "internalType": "uint256",
          "name": "tokenId",
          "type": "uint256"
        }
      ],
      "name": "stopBorrowingByLender",
      "outputs": [],
      "stateMutability": "nonpayable",
      "type": "function"
    },
    {
      "inputs": [],
      "name": "stopContract",
      "outputs": [],
      "stateMutability": "nonpayable",
      "type": "function"
    },
    {
      "inputs": [
        {
          "internalType": "bytes4",
          "name": "interfaceId",
          "type": "bytes4"
        }
      ],
      "name": "supportsInterface",
      "outputs": [
        {
          "internalType": "bool",
          "name": "",
          "type": "bool"
        }
      ],
      "stateMutability": "view",
      "type": "function"
    },
    {
      "inputs": [
        {
          "internalType": "address",
          "name": "newOwner",
          "type": "address"
        }
      ],
      "name": "transferOwnership",
      "outputs": [],
      "stateMutability": "nonpayable",
      "type": "function"
    }
  ],
  "bytecode": "0x608060405234801561001057600080fd5b506141f2806100206000396000f3fe608060405234801561001057600080fd5b50600436106101cf5760003560e01c8063617fd421116101045780639b1d3091116100a2578063c0a7c0a811610071578063c0a7c0a8146104ac578063c4bc5da5146104bf578063f23a6e61146104c7578063f2fde38b146104e757600080fd5b80639b1d309114610451578063a9af2c4914610464578063b89bc75414610477578063bc197c811461048a57600080fd5b8063884d7799116100de578063884d7799146103c15780638da5cb5b1461041a5780638e978dc91461042b5780639a69299a1461043e57600080fd5b8063617fd42114610393578063674b01e3146103a6578063715018a6146103b957600080fd5b8063274027e1116101715780633bf804411161014b5780633bf80441146103105780633f683b6a146103415780635c2d8040146103555780635e2afd961461038057600080fd5b8063274027e1146102d357806334041911146102e65780633699c95f146102fd57600080fd5b806312253a6c116101ad57806312253a6c14610234578063140c38861461023c578063150b7a0214610294578063242ad855146102c057600080fd5b806301ffc9a7146101d4578063033d6bdb146101fc578063058e376114610211575b600080fd5b6101e76101e2366004613046565b6104fa565b60405190151581526020015b60405180910390f35b61020f61020a366004613085565b610531565b005b61022461021f3660046130c6565b610984565b6040516101f39493929190613132565b61020f610a68565b61028461024a3660046131e9565b606c60205260009081526040902080546001909101546001600160a01b0382169160ff600160a01b8204811692600160a81b909204169084565b6040516101f39493929190613216565b6102a76102a23660046132b6565b610aa7565b6040516001600160e01b031990911681526020016101f3565b61020f6102ce3660046133bd565b610ab8565b61020f6102e13660046133fe565b610cd8565b6102ef60675481565b6040519081526020016101f3565b6101e761030b3660046130c6565b610d24565b6102ef61031e366004613085565b606a60209081526000938452604080852082529284528284209052825290205481565b6065546101e790600160a01b900460ff1681565b606854610368906001600160a01b031681565b6040516001600160a01b0390911681526020016101f3565b606554610368906001600160a01b031681565b606654610368906001600160a01b031681565b61020f6103b43660046133fe565b610d5d565b61020f610da9565b6102846103cf3660046130c6565b606b602090815260009384526040808520825292845282842090528252902080546001909101546001600160a01b0382169160ff600160a01b8204811692600160a81b909204169084565b6033546001600160a01b0316610368565b61020f61043936600461345f565b610ddf565b61020f61044c3660046134b3565b611226565b61020f61045f3660046134fa565b61131c565b61020f610472366004613085565b611389565b61020f610485366004613085565b611809565b6102a7610498366004613554565b63bc197c8160e01b98975050505050505050565b61020f6104ba366004613612565b611c6e565b61020f612a00565b6102a76104d53660046136d8565b63f23a6e6160e01b9695505050505050565b61020f6104f53660046133fe565b612a39565b60006001600160e01b03198216630271189760e51b148061052b57506301ffc9a760e01b6001600160e01b03198316145b92915050565b606554600160a01b900460ff16156105645760405162461bcd60e51b815260040161055b90613753565b60405180910390fd5b6001600160a01b03808316600090815260696020908152604080832085845282528083208785168452909152902060018101549091829116156105d85760405162461bcd60e51b815260206004820152600c60248201526b105b1c9958591e481b195b9d60a21b604482015260640161055b565b80546001600160a01b03163314156106325760405162461bcd60e51b815260206004820152601c60248201527f43616e6e6f7420626f72726f7720796f7572206f776e20617373657400000000604482015260640161055b565b600061063f868686612ad4565b54604051636eb1769f60e11b81523360048201523060248201526001600160a01b039091169150600090829063dd62ed3e90604401602060405180830381865afa158015610691573d6000803e3d6000fd5b505050506040513d601f19601f820116820180604052508101906106b5919061377d565b9050826002015481101561070b5760405162461bcd60e51b815260206004820152601a60248201527f4e6f7420656e6f75676820746f6b656e73207265636569766564000000000000604482015260640161055b565b60028301546040516323b872dd60e01b815233600482015230602482015260448101919091526001600160a01b038316906323b872dd906064016020604051808303816000875af1158015610764573d6000803e3d6000fd5b505050506040513d601f19601f820116820180604052508101906107889190613796565b50604080516101208101825284546001600160a01b039081168252600180870154909116602083015260028601549282019290925260038501546060820152600485015460808201526005850154600092610835928a928a92899160a084019160ff909116908111156107fd576107fd613108565b600181111561080e5761080e613108565b81526020016006820154815260200160078201548152602001600882015481525050612b48565b602080820151600988015581510151600a870180546001600160a01b039283166001600160a01b031991821617909155606654600b890180548316919093161790915560018601805490911633179055905061088e4290565b6004850155336000908152606a602090815260408083206001600160a01b038b168452825280832089845290915281208054916108ca836137ce565b91905055507f8dc59d3e5497e50bb76cac87cab35ec57eb772bba453689c0af12073e9ffb29287604051806080016040528089815260200188600901548152602001876006015481526020018760050160009054906101000a900460ff16600181111561093957610939613108565b9052600a8801548754600189015460048a015460078b01546040516109729796956001600160a01b039081169581169416929190613818565b60405180910390a15050505050505050565b6069602090815260009384526040808520825292845282842081529083529181902081516101208101835281546001600160a01b03908116825260018084015490911694820194909452600282015492810192909252600381015460608301526004810154608083015260058101549092839160a084019160ff90911690811115610a1157610a11613108565b6001811115610a2257610a22613108565b815260068201546020820152600782015460408201526008909101546060909101526009820154600a830154600b90930154919290916001600160a01b03918216911684565b6033546001600160a01b03163314610a925760405162461bcd60e51b815260040161055b90613865565b6065805460ff60a01b1916600160a01b179055565b630a85bd0160e11b5b949350505050565b6033546001600160a01b03163314610ae25760405162461bcd60e51b815260040161055b90613865565b60005b81811015610cd3576000838383818110610b0157610b0161389a565b9050608002016020016020810190610b1991906131e9565b6003811115610b2a57610b2a613108565b1415610b6b5760405162461bcd60e51b815260206004820152601060248201526f496e76616c69642043757272656e637960801b604482015260640161055b565b6000838383818110610b7f57610b7f61389a565b9050608002016060013511610bcd5760405162461bcd60e51b8152602060048201526014602482015273125b9d985b1a590811585c9b9a5b99c811dbd85b60621b604482015260640161055b565b6000838383818110610be157610be161389a565b9050608002016040016020810190610bf991906138bf565b60ff1611610c3c5760405162461bcd60e51b815260206004820152601060248201526f496e76616c696420446563696d616c7360801b604482015260640161055b565b828282818110610c4e57610c4e61389a565b905060800201606c6000858585818110610c6a57610c6a61389a565b9050608002016020016020810190610c8291906131e9565b6003811115610c9357610c93613108565b6003811115610ca457610ca4613108565b81526020019081526020016000208181610cbe91906138dc565b50819050610ccb81613981565b915050610ae5565b505050565b6033546001600160a01b03163314610d025760405162461bcd60e51b815260040161055b90613865565b606880546001600160a01b0319166001600160a01b0392909216919091179055565b6001600160a01b038082166000908152606a602090815260408083209387168352928152828220858352905290812054135b9392505050565b6033546001600160a01b03163314610d875760405162461bcd60e51b815260040161055b90613865565b606680546001600160a01b0319166001600160a01b0392909216919091179055565b6033546001600160a01b03163314610dd35760405162461bcd60e51b815260040161055b90613865565b610ddd6000612db0565b565b606554600160a01b900460ff1615610e095760405162461bcd60e51b815260040161055b90613753565b6001600160a01b038316600090815260696020526040812090818185858281610e3457610e3461389a565b60209081029290920135835250818101929092526040908101600090812033825290925281206005015460ff169150836001600160401b03811115610e7b57610e7b613248565b604051908082528060200260200182016040528015610ea4578160200160208202803683370190505b5090506000846001600160401b03811115610ec157610ec1613248565b604051908082528060200260200182016040528015610eea578160200160208202803683370190505b50905060005b8581101561114b576000878783818110610f0c57610f0c61389a565b602090810292909201356000818152898452604080822033808452955290208054919450926001600160a01b03909116149050610f8b5760405162461bcd60e51b815260206004820152601960248201527f43616e6e6f742072656d6f7665206f7468657273206c656e6400000000000000604482015260640161055b565b60018101546001600160a01b031615610fde5760405162461bcd60e51b815260206004820152601560248201527410d85b9b9bdd0818d85b98d95b081a59881b195b9d605a1b604482015260640161055b565b856001811115610ff057610ff0613108565b600582015460ff16600181111561100957611009613108565b146110485760405162461bcd60e51b815260206004820152600f60248201526e57726f6e672061737365745479706560881b604482015260640161055b565b806006015485848151811061105f5761105f61389a565b6020908102919091018101919091526001600160a01b038b16600081815260698352604080822086835284528082203380845290855281832080546001600160a01b03199081168255600180830180548316905560028301869055600383018690556004830186905560058301805460ff1916905560068301869055600783018690556008830186905560098301869055600a8301805483169055600b90920180549091169055938352606b85528183209683529584528082209582529490925292812080546001600160b01b031916815590920191909155508061114381613981565b915050610ef0565b50600183600181111561116057611160613108565b14156111d157604051631759616b60e11b81526001600160a01b03881690632eb2c2d69061119a90309033908b908b908990600401613a06565b600060405180830381600087803b1580156111b457600080fd5b505af11580156111c8573d6000803e3d6000fd5b505050506111de565b6111de8730338989612e02565b7f87f588553f35e5b084c830e2d43d9cfbb3421a7b9b05e64d630f0bffb27261948787873385604051611215959493929190613a63565b60405180910390a150505050505050565b600054610100900460ff166112415760005460ff1615611245565b303b155b6112a85760405162461bcd60e51b815260206004820152602e60248201527f496e697469616c697a61626c653a20636f6e747261637420697320616c72656160448201526d191e481a5b9a5d1a585b1a5e995960921b606482015260840161055b565b600054610100900460ff161580156112ca576000805461ffff19166101011790555b6112d2612eba565b6065805460ff60a01b19169055606680546001600160a01b0319166001600160a01b0386161790556113048383610ab8565b8015611316576000805461ff00191690555b50505050565b6033546001600160a01b031633146113465760405162461bcd60e51b815260040161055b90613865565b61271081106113845760405162461bcd60e51b815260206004820152600a6024820152696572726f72207261746560b01b604482015260640161055b565b606755565b606554600160a01b900460ff16156113b35760405162461bcd60e51b815260040161055b90613753565b6001600160a01b0380831660009081526069602090815260408083208584528252808320878516845290915290206001810154909182911661142f5760405162461bcd60e51b8152602060048201526015602482015274151bdad95b881a5cc81b9bdd08189bdc9c9bddd959605a1b604482015260640161055b565b60018101546001600160a01b0316331461148b5760405162461bcd60e51b815260206004820152601f60248201527f43616e2062652073746f70706564206f6e6c7920627920626f72726f77657200604482015260640161055b565b60008160040154905060008060006114b58560040154866003015487600201548860080154612ee9565b92509250925060006114c88a8a8a612ad4565b5460405163a9059cbb60e01b8152336004820152602481018590526001600160a01b039091169150819063a9059cbb906044016020604051808303816000875af115801561151a573d6000803e3d6000fd5b505050506040513d601f19601f8201168201806040525081019061153e9190613796565b50855460405163a9059cbb60e01b81526001600160a01b039182166004820152602481018690529082169063a9059cbb906044016020604051808303816000875af1158015611591573d6000803e3d6000fd5b505050506040513d601f19601f820116820180604052508101906115b59190613796565b506000821180156115d057506068546001600160a01b031615155b1561164e5760685460405163a9059cbb60e01b81526001600160a01b039182166004820152602481018490529082169063a9059cbb906044016020604051808303816000875af1158015611628573d6000803e3d6000fd5b505050506040513d601f19601f8201168201806040525081019061164c9190613796565b505b60058601546000906116629060ff16612f98565b600b890154600a8a015460098b0154604051630294104160e61b81529394506001600160a01b039283169363a5041040936116a4938793911691600401613abd565b600060405180830381600087803b1580156116be57600080fd5b505af11580156116d2573d6000803e3d6000fd5b5050506001880180546001600160a01b03191690555060006004880181905560098901819055338152606a602090815260408083206001600160a01b038e16845282528083208c8452909152812054131561176457336000908152606a602090815260408083206001600160a01b038e16845282528083208c8452909152812080549161175e83613ae5565b91905055505b7fc67c6b86bffba4bc881703e03f9db73aa6c5f4c6803857a28de51e2ef61b29b08a60405180608001604052808c81526020018b6009015481526020018a6006015481526020018a60050160009054906101000a900460ff1660018111156117ce576117ce613108565b9052895460078b01546040516117f49493926001600160a01b03169133918d9190613b03565b60405180910390a15050505050505050505050565b606554600160a01b900460ff16156118335760405162461bcd60e51b815260040161055b90613753565b6001600160a01b038083166000908152606960209081526040808320858452825280832087851684529091529020600181015490918291166118af5760405162461bcd60e51b8152602060048201526015602482015274151bdad95b881a5cc81b9bdd08189bdc9c9bddd959605a1b604482015260640161055b565b80546001600160a01b031633146119085760405162461bcd60e51b815260206004820152601d60248201527f43616e2062652073746f70706564206f6e6c79206279206c656e646572000000604482015260640161055b565b60008160030154610e1061191c9190613b4c565b826004015461192b9190613b6b565b9050804210156119695760405162461bcd60e51b8152602060048201526009602482015268546f6f206561726c7960b81b604482015260640161055b565b6000611976878787612ad4565b54600284015460088501546001600160a01b039092169250600091829161199c91612fc3565b865460405163a9059cbb60e01b81526001600160a01b0391821660048201526024810184905292945090925084169063a9059cbb906044016020604051808303816000875af11580156119f3573d6000803e3d6000fd5b505050506040513d601f19601f82011682018060405250810190611a179190613796565b50600081118015611a3257506068546001600160a01b031615155b15611ab05760685460405163a9059cbb60e01b81526001600160a01b039182166004820152602481018390529084169063a9059cbb906044016020604051808303816000875af1158015611a8a573d6000803e3d6000fd5b505050506040513d601f19601f82011682018060405250810190611aae9190613796565b505b6005850154600090611ac49060ff16612f98565b600b880154600a89015460098a0154604051630294104160e61b81529394506001600160a01b039283169363a504104093611b06938793911691600401613abd565b600060405180830381600087803b158015611b2057600080fd5b505af1158015611b34573d6000803e3d6000fd5b5050506001870180546001600160a01b03191690555060006004870181905560098801819055338152606a602090815260408083206001600160a01b038d16845282528083208b84529091528120541315611bc657336000908152606a602090815260408083206001600160a01b038d16845282528083208b84529091528120805491611bc083613ae5565b91905055505b7fc67c6b86bffba4bc881703e03f9db73aa6c5f4c6803857a28de51e2ef61b29b08960405180608001604052808b81526020018a600901548152602001896006015481526020018960050160009054906101000a900460ff166001811115611c3057611c30613108565b9052885460048a015460078b0154604051611c5a9594936001600160a01b03169233929091613b03565b60405180910390a150505050505050505050565b606554600160a01b900460ff1615611c985760405162461bcd60e51b815260040161055b90613753565b6033611ca76040890189613b83565b905010611cf65760405162461bcd60e51b815260206004820152601d60248201527f50726f6a656374206e616d65206d6178206c656e677468206973203530000000604482015260640161055b565b6000611d086040890160208a01613bc9565b6001811115611d1957611d19613108565b1480611d4557506001611d326040890160208a01613bc9565b6001811115611d4357611d43613108565b145b611d845760405162461bcd60e51b815260206004820152601060248201526f556b6e6f77206173736574207479706560801b604482015260640161055b565b604080516101406020860280830182019093526101208201868152600093839289918991829190860190849080828437600092019190915250505090825250602001876001600160401b03811115611dde57611dde613248565b604051908082528060200260200182016040528015611e1157816020015b6060815260200190600190039081611dfc5790505b508152602001876001600160401b03811115611e2f57611e2f613248565b604051908082528060200260200182016040528015611e58578160200160208202803683370190505b508152602001876001600160401b03811115611e7657611e76613248565b604051908082528060200260200182016040528015611e9f578160200160208202803683370190505b508152602001611eb260408b018b613b83565b8080601f016020809104026020016040519081016040528093929190818152602001838380828437600092019190915250505090825250602090810190611eff9060408c01908c01613bc9565b6001811115611f1057611f10613108565b81526020014281526067546020820152604001876001600160401b03811115611f3b57611f3b613248565b604051908082528060200260200182016040528015611f64578160200160208202803683370190505b509052905060005b8681101561291e576000888883818110611f8857611f8861389a565b9050602002013590506000606c6000878786818110611fa957611fa961389a565b9050602002810190611fbb9190613bea565b611fcc9060808101906060016131e9565b6003811115611fdd57611fdd613108565b6003811115611fee57611fee613108565b8152602080820192909252604090810160002081516080810190925280546001600160a01b03811683529192909190830190600160a01b900460ff16600381111561203b5761203b613108565b600381111561204c5761204c613108565b81528154600160a81b900460ff16602082015260019091015460409091015260608101519091508686858181106120855761208561389a565b90506020028101906120979190613bea565b6020013510156120e05760405162461bcd60e51b8152602060048201526014602482015273125b9d985b1a590819585c9b9a5b99c819dbd85b60621b604482015260640161055b565b60018686858181106120f4576120f461389a565b90506020028101906121069190613bea565b60400135116121575760405162461bcd60e51b815260206004820181905260248201527f4c656e64696e67206475726174696f6e206d7573742062652061626f76652031604482015260640161055b565b600088888581811061216b5761216b61389a565b90506020020135116121bf5760405162461bcd60e51b815260206004820152601e60248201527f546865206e667420616d6f756e74206d7573742062652061626f766520300000604482015260640161055b565b60338686858181106121d3576121d361389a565b90506020028101906121e59190613bea565b6121ef9080613b83565b90501061223e5760405162461bcd60e51b815260206004820152601960248201527f4e4654206e616d65206d6178206c656e67746820697320353000000000000000604482015260640161055b565b600060698161225060208f018f6133fe565b6001600160a01b03908116825260208083019390935260409182016000908120878252845282812033825290935291205416146122cf5760405162461bcd60e51b815260206004820181905260248201527f596f752068617665206c656e64206f7574207468652073616d65206173736574604482015260640161055b565b336000908152606a60209081526040822091906122ee908e018e6133fe565b6001600160a01b0316815260208082019290925260409081016000908120858252909252902054156123625760405162461bcd60e51b815260206004820152601860248201527f43616e6e6f74206c656e6420626f72726f776564206e66740000000000000000604482015260640161055b565b80516001600160a01b03166123ac5760405162461bcd60e51b815260206004820152601060248201526f556e6b6e6f776e2063757272656e637960801b604482015260640161055b565b6000806123bf60408e0160208f01613bc9565b60018111156123d0576123d0613108565b14156123de575060016123fa565b8888858181106123f0576123f061389a565b9050602002013590505b81606b60008e600001602081019061241291906133fe565b6001600160a01b0390811682526020808301939093526040918201600090812088825284528281203382528452919091208351815492166001600160a01b0319831681178255928401519092909183916001600160a81b031990911617600160a01b83600381111561248657612486613108565b0217905550604082810151825460ff909116600160a81b0260ff60a81b1990911617825560609092015160019091015580516101a081019091523360808201908152600060a0830152819060c082018a8a898181106124e7576124e761389a565b90506020028101906124f99190613bea565b6020013581526020018a8a898181106125145761251461389a565b90506020028101906125269190613bea565b604001358152602001600081526020018f60200160208101906125499190613bc9565b600181111561255a5761255a613108565b815260200184815260200161256c4290565b815260200160675481525081526020016000815260200160006001600160a01b0316815260200160006001600160a01b0316815250606960008e60000160208101906125b891906133fe565b6001600160a01b03908116825260208083019390935260409182016000908120888252845282812033825284528290208451805182549084166001600160a01b03199182161783559481015160018084018054929095169190961617909255918101516002830155606081015160038301556080810151600483015560a081015160058301805493949293859360ff1990911690838181111561265d5761265d613108565b021790555060c0820151600682015560e0820151600782015561010090910151600890910155602082015160098201556040820151600a820180546001600160a01b03199081166001600160a01b0393841617909155606090930151600b909201805490931691161790558686858181106126da576126da61389a565b90506020028101906126ec9190613bea565b6126f69080613b83565b8080601f01602080910402602001604051908101604052809392919081815260200183838082843760009201919091525050505060208601518051869081106127415761274161389a565b602002602001018190525086868581811061275e5761275e61389a565b90506020028101906127709190613bea565b602001358560400151858151811061278a5761278a61389a565b6020026020010181815250508686858181106127a8576127a861389a565b90506020028101906127ba9190613bea565b60400135856060015185815181106127d4576127d461389a565b6020026020010181815250508686858181106127f2576127f261389a565b90506020028101906128049190613bea565b6128159060808101906060016131e9565b856101000151858151811061282c5761282c61389a565b6020026020010190600381111561284557612845613108565b9081600381111561285857612858613108565b905250600061286d60408e0160208f01613bc9565b600181111561287e5761287e613108565b14156129085761289160208d018d6133fe565b604051635c46a7ef60e11b81523360048201523060248201526044810185905260806064820152600060848201526001600160a01b03919091169063b88d4fde9060a401600060405180830381600087803b1580156128ef57600080fd5b505af1158015612903573d6000803e3d6000fd5b505050505b505050808061291690613981565b915050611f6c565b50600161293160408a0160208b01613bc9565b600181111561294257612942613108565b14156129bd5761295560208901896133fe565b6001600160a01b0316632eb2c2d633308a8a8a8a6040518763ffffffff1660e01b815260040161298a96959493929190613c0a565b600060405180830381600087803b1580156129a457600080fd5b505af11580156129b8573d6000803e3d6000fd5b505050505b7f5cb16808e469f6b6b7956a464583f87514454fcdd18deaa5afd8543ad8d6bfba6129eb60208a018a6133fe565b88883385604051610972959493929190613d42565b6033546001600160a01b03163314612a2a5760405162461bcd60e51b815260040161055b90613865565b6065805460ff60a01b19169055565b6033546001600160a01b03163314612a635760405162461bcd60e51b815260040161055b90613865565b6001600160a01b038116612ac85760405162461bcd60e51b815260206004820152602660248201527f4f776e61626c653a206e6577206f776e657220697320746865207a65726f206160448201526564647265737360d01b606482015260840161055b565b612ad181612db0565b50565b6001600160a01b038083166000908152606b602090815260408083208584528252808320878516845290915281208054919290911615612b15579050610d56565b505060016000525050606c602052507fdcf345d7f6a8deb7427d0fee62009fa15100353a1c666b51bb5387b25addcfa990565b6040805160a08101825260006060820181815260808301829052825260208201819052918101919091526000808360a001516001811115612b8b57612b8b613108565b1415612c005760665460405163095ea7b360e01b81526001600160a01b039182166004820152602481018690529086169063095ea7b390604401600060405180830381600087803b158015612bdf57600080fd5b505af1158015612bf3573d6000803e3d6000fd5b5050505060039050612c6b565b60665460405163a22cb46560e01b81526001600160a01b039182166004820152600160248201529086169063a22cb46590604401600060405180830381600087803b158015612c4e57600080fd5b505af1158015612c62573d6000803e3d6000fd5b50505050600490505b60006040518060400160405280836007811115612c8a57612c8a613108565b8152602001876001600160a01b03168152509050600060405180606001604052808381526020018781526020018660c00151815250905060608060606000604051806101000160405280868152602001306001600160a01b03168152602001858152602001848152602001838152602001886007811115612d0d57612d0d613108565b815260c08b01516020820152600760f11b6040918201526066549051634d36d08560e01b81529192506060916001600160a01b0390911690634d36d08590612d5d90859085903390600401613f9a565b6080604051808303816000875af1158015612d7c573d6000803e3d6000fd5b505050506040513d601f19601f82011682018060405250810190612da09190614084565b9c9b505050505050505050505050565b603380546001600160a01b038381166001600160a01b0319831681179093556040519116919082907f8be0079c531659141344cd1fd0a4f28419497f9722a3daafe3b4186f6b6457e090600090a35050565b60005b81811015612eb257856001600160a01b03166323b872dd8686868686818110612e3057612e3061389a565b6040516001600160e01b031960e088901b1681526001600160a01b03958616600482015294909316602485015250602090910201356044820152606401600060405180830381600087803b158015612e8757600080fd5b505af1158015612e9b573d6000803e3d6000fd5b505050508080612eaa90613981565b915050612e05565b505050505050565b600054610100900460ff16612ee15760405162461bcd60e51b815260040161055b9061411c565b610ddd613016565b6000808080612ef88842614167565b90506000612f08610e1083614194565b15612f2957612f19610e10836141a8565b612f24906001613b6b565b612f35565b612f35610e10836141a8565b905087811115612f46575086612f4f565b80612f4f575060015b600088612f5c8984613b4c565b612f6691906141a8565b90506000612f74828a614167565b9050600080612f83848b612fc3565b909e939d509b50919950505050505050505050565b600080826001811115612fad57612fad613108565b1415612fbb57506003919050565b506004919050565b60008080612710612fd48587613b4c565b612fde91906141a8565b9050600081118015612fef57508481105b1561300557612ffe8186614167565b9450613009565b5060005b84925090505b9250929050565b600054610100900460ff1661303d5760405162461bcd60e51b815260040161055b9061411c565b610ddd33612db0565b60006020828403121561305857600080fd5b81356001600160e01b031981168114610d5657600080fd5b6001600160a01b0381168114612ad157600080fd5b60008060006060848603121561309a57600080fd5b83356130a581613070565b925060208401356130b581613070565b929592945050506040919091013590565b6000806000606084860312156130db57600080fd5b83356130e681613070565b92506020840135915060408401356130fd81613070565b809150509250925092565b634e487b7160e01b600052602160045260246000fd5b6002811061312e5761312e613108565b9052565b60006101808201905060018060a01b038087511683528060208801511660208401525060408601516040830152606086015160608301526080860151608083015260a086015161318560a084018261311e565b5060c086015160c083015260e086015160e0830152610100808701518184015250846101208301526131c36101408301856001600160a01b03169052565b6001600160a01b03831661016083015295945050505050565b60048110612ad157600080fd5b6000602082840312156131fb57600080fd5b8135610d56816131dc565b6004811061312e5761312e613108565b6001600160a01b0385168152608081016132336020830186613206565b60ff9390931660408201526060015292915050565b634e487b7160e01b600052604160045260246000fd5b604080519081016001600160401b038111828210171561328057613280613248565b60405290565b604051601f8201601f191681016001600160401b03811182821017156132ae576132ae613248565b604052919050565b600080600080608085870312156132cc57600080fd5b84356132d781613070565b93506020858101356132e881613070565b93506040860135925060608601356001600160401b038082111561330b57600080fd5b818801915088601f83011261331f57600080fd5b81358181111561333157613331613248565b613343601f8201601f19168501613286565b9150808252898482850101111561335957600080fd5b808484018584013760008482840101525080935050505092959194509250565b60008083601f84011261338b57600080fd5b5081356001600160401b038111156133a257600080fd5b6020830191508360208260071b850101111561300f57600080fd5b600080602083850312156133d057600080fd5b82356001600160401b038111156133e657600080fd5b6133f285828601613379565b90969095509350505050565b60006020828403121561341057600080fd5b8135610d5681613070565b60008083601f84011261342d57600080fd5b5081356001600160401b0381111561344457600080fd5b6020830191508360208260051b850101111561300f57600080fd5b60008060006040848603121561347457600080fd5b833561347f81613070565b925060208401356001600160401b0381111561349a57600080fd5b6134a68682870161341b565b9497909650939450505050565b6000806000604084860312156134c857600080fd5b83356134d381613070565b925060208401356001600160401b038111156134ee57600080fd5b6134a686828701613379565b60006020828403121561350c57600080fd5b5035919050565b60008083601f84011261352557600080fd5b5081356001600160401b0381111561353c57600080fd5b60208301915083602082850101111561300f57600080fd5b60008060008060008060008060a0898b03121561357057600080fd5b883561357b81613070565b9750602089013561358b81613070565b965060408901356001600160401b03808211156135a757600080fd5b6135b38c838d0161341b565b909850965060608b01359150808211156135cc57600080fd5b6135d88c838d0161341b565b909650945060808b01359150808211156135f157600080fd5b506135fe8b828c01613513565b999c989b5096995094979396929594505050565b60008060008060008060006080888a03121561362d57600080fd5b87356001600160401b038082111561364457600080fd5b908901906060828c03121561365857600080fd5b9097506020890135908082111561366e57600080fd5b61367a8b838c0161341b565b909850965060408a013591508082111561369357600080fd5b61369f8b838c0161341b565b909650945060608a01359150808211156136b857600080fd5b506136c58a828b0161341b565b989b979a50959850939692959293505050565b60008060008060008060a087890312156136f157600080fd5b86356136fc81613070565b9550602087013561370c81613070565b9450604087013593506060870135925060808701356001600160401b0381111561373557600080fd5b61374189828a01613513565b979a9699509497509295939492505050565b60208082526010908201526f18dbdb9d1c9858dd081cdd1bdc1c195960821b604082015260600190565b60006020828403121561378f57600080fd5b5051919050565b6000602082840312156137a857600080fd5b81518015158114610d5657600080fd5b634e487b7160e01b600052601160045260246000fd5b60006001600160ff1b038214156137e7576137e76137b8565b5060010190565b8051825260208101516020830152604081015160408301526060810151610cd3606084018261311e565b6001600160a01b038881168252610140820190613838602084018a6137ee565b96871660a083015294861660c08201529290941660e0830152610100820152610120019190915292915050565b6020808252818101527f4f776e61626c653a2063616c6c6572206973206e6f7420746865206f776e6572604082015260600190565b634e487b7160e01b600052603260045260246000fd5b60ff81168114612ad157600080fd5b6000602082840312156138d157600080fd5b8135610d56816138b0565b81356138e781613070565b81546001600160a01b031981166001600160a01b039290921691821783556020840135613913816131dc565b6004811061392357613923613108565b60ff60a01b60a09190911b166001600160a81b03198216831781178455604085013561394e816138b0565b60ff60a81b8160a81b168469ffffffffffffffffffff60b01b851617831717855550505050606082013560018201555050565b60006000198214156137e7576137e76137b8565b81835260006001600160fb1b038311156139ae57600080fd5b8260051b8083602087013760009401602001938452509192915050565b600081518084526020808501945080840160005b838110156139fb578151875295820195908201906001016139df565b509495945050505050565b6001600160a01b0386811682528516602082015260a060408201819052600090613a339083018587613995565b8281036060840152613a4581856139cb565b83810360809094019390935250506000815260200195945050505050565b600060018060a01b03808816835260806020840152613a86608084018789613995565b81861660408501528381036060850152613aa081866139cb565b9998505050505050505050565b6008811061312e5761312e613108565b60608101613acb8286613aad565b6001600160a01b0393909316602082015260400152919050565b6000600160ff1b821415613afb57613afb6137b8565b506000190190565b6001600160a01b038781168252610120820190613b2360208401896137ee565b80871660a084015280861660c0840152508360e083015282610100830152979650505050505050565b6000816000190483118215151615613b6657613b666137b8565b500290565b60008219821115613b7e57613b7e6137b8565b500190565b6000808335601e19843603018112613b9a57600080fd5b8301803591506001600160401b03821115613bb457600080fd5b60200191503681900382131561300f57600080fd5b600060208284031215613bdb57600080fd5b813560028110610d5657600080fd5b60008235607e19833603018112613c0057600080fd5b9190910192915050565b6001600160a01b0387811682528616602082015260a060408201819052600090613c379083018688613995565b8281036060840152613c4a818587613995565b8381036080909401939093525050600081526020019695505050505050565b6000815180845260005b81811015613c8f57602081850181015186830182015201613c73565b81811115613ca1576000602083870101525b50601f01601f19169290920160200192915050565b600081518084526020808501808196508360051b8101915082860160005b85811015613cfe578284038952613cec848351613c69565b98850198935090840190600101613cd4565b5091979650505050505050565b600081518084526020808501945080840160005b838110156139fb57613d32878351613206565b9582019590820190600101613d1f565b600060018060a01b03808816835260806020840152613d65608084018789613995565b8186166040850152838103606085015261012091508451828252613d8b838301826139cb565b92505060208501518183036020830152613da58382613cb6565b92505060408501518183036040830152613dbf83826139cb565b92505060608501518183036060830152613dd983826139cb565b92505060808501518183036080830152613df38382613c69565b92505060a0850151613e0860a083018261311e565b5060c085015160c082015260e085015160e08201526101008086015182840382840152613e358482613d0b565b9b9a5050505050505050505050565b8051613e51838251613aad565b6020908101516001600160a01b0316838201528101516040808401919091520151606090910152565b600081518084526020808501945080840160005b838110156139fb57815180516001600160f81b031916885283810151848901526040908101516001600160a01b03169088015260609096019590820190600101613e8e565b600081518084526020808501945080840160005b838110156139fb57815180516001600160f81b03191688528301518388015260409096019590820190600101613ee7565b600081518084526020808501945080840160005b838110156139fb57815180516001600160a01b0316885283015161ffff168388015260409096019590820190600101613f2c565b600081518084526020808501945080840160005b838110156139fb57613f87878351613e44565b6080969096019590820190600101613f74565b60608152613fac606082018551613e44565b60006020850151613fc860e08401826001600160a01b03169052565b50604085015161016080610100850152613fe66101c0850183613e7a565b91506060870151605f1980868503016101208701526140058483613ed3565b9350608089015191508086850301610140870152506140248382613f18565b92505060a087015161403882860182613aad565b505060c086015161018084015260e08601516001600160f01b0319166101a0840152828103602084015261406c8186613f60565b915050610ab060408301846001600160a01b03169052565b6000818303608081121561409757600080fd5b604051606081018181106001600160401b03821117156140b9576140b9613248565b60409081528212156140ca57600080fd5b6140d261325e565b91508351600881106140e357600080fd5b825260208401516140f381613070565b806020840152508181526040840151602082015260608401516040820152809250505092915050565b6020808252602b908201527f496e697469616c697a61626c653a20636f6e7472616374206973206e6f74206960408201526a6e697469616c697a696e6760a81b606082015260800190565b600082821015614179576141796137b8565b500390565b634e487b7160e01b600052601260045260246000fd5b6000826141a3576141a361417e565b500690565b6000826141b7576141b761417e565b50049056fea2646970667358221220d7cc4d51f1cf75b43848cf6825144c9f57647319c4cc94436c5b8e7746bbe3a764736f6c634300080b0033",
  "linkReferences": {},
  "deployedLinkReferences": {}
}